{
  "address": "0x2279B7A0a67DB372996a5FaB50D91eAA73d2eBe6",
  "abi": [
    {
      "inputs": [
        {
          "internalType": "address",
          "name": "_lpTokenAddress",
          "type": "address"
        },
        {
          "internalType": "address",
          "name": "_antTokenAddress",
          "type": "address"
        }
      ],
      "stateMutability": "nonpayable",
      "type": "constructor"
    },
    {
      "inputs": [
        {
          "internalType": "address",
          "name": "owner",
          "type": "address"
        }
      ],
      "name": "OwnableInvalidOwner",
      "type": "error"
    },
    {
      "inputs": [
        {
          "internalType": "address",
          "name": "account",
          "type": "address"
        }
      ],
      "name": "OwnableUnauthorizedAccount",
      "type": "error"
    },
    {
      "anonymous": false,
      "inputs": [
        {
          "indexed": true,
          "internalType": "address",
          "name": "previousOwner",
          "type": "address"
        },
        {
          "indexed": true,
          "internalType": "address",
          "name": "newOwner",
          "type": "address"
        }
      ],
      "name": "OwnershipTransferred",
      "type": "event"
    },
    {
      "stateMutability": "payable",
      "type": "fallback"
    },
    {
      "inputs": [
        {
          "internalType": "uint256",
          "name": "_amountOfToken",
          "type": "uint256"
        }
      ],
      "name": "addLiquidity",
      "outputs": [
        {
          "internalType": "uint256",
          "name": "",
          "type": "uint256"
        }
      ],
      "stateMutability": "payable",
      "type": "function"
    },
    {
      "inputs": [
        {
          "internalType": "uint256",
          "name": "tokensToSwap",
          "type": "uint256"
        },
        {
          "internalType": "uint256",
          "name": "minEthToReceive",
          "type": "uint256"
        }
      ],
      "name": "antToEthSwap",
      "outputs": [],
      "stateMutability": "payable",
      "type": "function"
    },
    {
      "inputs": [
        {
          "internalType": "uint256",
          "name": "inputAmount",
          "type": "uint256"
        },
        {
          "internalType": "uint256",
          "name": "inputReserve",
          "type": "uint256"
        },
        {
          "internalType": "uint256",
          "name": "outputReserve",
          "type": "uint256"
        }
      ],
      "name": "calculateSwap",
      "outputs": [
        {
          "internalType": "uint256",
          "name": "",
          "type": "uint256"
        }
      ],
      "stateMutability": "pure",
      "type": "function"
    },
    {
      "inputs": [
        {
          "internalType": "uint256",
          "name": "minTokensToReceive",
          "type": "uint256"
        }
      ],
      "name": "ethToAntSwap",
      "outputs": [],
      "stateMutability": "payable",
      "type": "function"
    },
    {
      "inputs": [],
      "name": "getReserve",
      "outputs": [
        {
          "internalType": "uint256",
          "name": "",
          "type": "uint256"
        }
      ],
      "stateMutability": "view",
      "type": "function"
    },
    {
      "inputs": [],
      "name": "owner",
      "outputs": [
        {
          "internalType": "address",
          "name": "",
          "type": "address"
        }
      ],
      "stateMutability": "view",
      "type": "function"
    },
    {
      "inputs": [
        {
          "internalType": "uint256",
          "name": "_amountOfLPToken",
          "type": "uint256"
        }
      ],
      "name": "removeLiquidity",
      "outputs": [
        {
          "internalType": "uint256",
          "name": "",
          "type": "uint256"
        },
        {
          "internalType": "uint256",
          "name": "",
          "type": "uint256"
        }
      ],
      "stateMutability": "nonpayable",
      "type": "function"
    },
    {
      "inputs": [],
      "name": "renounceOwnership",
      "outputs": [],
      "stateMutability": "nonpayable",
      "type": "function"
    },
    {
      "inputs": [
        {
          "internalType": "address",
          "name": "newOwner",
          "type": "address"
        }
      ],
      "name": "transferOwnership",
      "outputs": [],
      "stateMutability": "nonpayable",
      "type": "function"
    },
    {
      "stateMutability": "payable",
      "type": "receive"
    }
  ],
  "transactionHash": "0xdcefdaa2e828b413d97cf7585acf97a3367c33146b3bc7c82a733fd9e244bb23",
  "args": [
    "0xa513E6E4b8f2a923D98304ec87F64353C4D5C853",
    "0x0165878A594ca255338adfa4d48449f69242Eb8F"
  ],
  "numDeployments": 1,
  "solcInputHash": "d6cb48bf0b2a775ff5ab127eb7cbfd30",
  "bytecode": "0x608060405234801561001057600080fd5b5060405161183538038061183583398181016040528101906100329190610265565b33600073ffffffffffffffffffffffffffffffffffffffff168173ffffffffffffffffffffffffffffffffffffffff16036100a55760006040517f1e4fbdf700000000000000000000000000000000000000000000000000000000815260040161009c91906102b4565b60405180910390fd5b6100b48161013e60201b60201c565b5080600160006101000a81548173ffffffffffffffffffffffffffffffffffffffff021916908373ffffffffffffffffffffffffffffffffffffffff16021790555081600260006101000a81548173ffffffffffffffffffffffffffffffffffffffff021916908373ffffffffffffffffffffffffffffffffffffffff16021790555050506102cf565b60008060009054906101000a900473ffffffffffffffffffffffffffffffffffffffff169050816000806101000a81548173ffffffffffffffffffffffffffffffffffffffff021916908373ffffffffffffffffffffffffffffffffffffffff1602179055508173ffffffffffffffffffffffffffffffffffffffff168173ffffffffffffffffffffffffffffffffffffffff167f8be0079c531659141344cd1fd0a4f28419497f9722a3daafe3b4186f6b6457e060405160405180910390a35050565b600080fd5b600073ffffffffffffffffffffffffffffffffffffffff82169050919050565b600061023282610207565b9050919050565b61024281610227565b811461024d57600080fd5b50565b60008151905061025f81610239565b92915050565b6000806040838503121561027c5761027b610202565b5b600061028a85828601610250565b925050602061029b85828601610250565b9150509250929050565b6102ae81610227565b82525050565b60006020820190506102c960008301846102a5565b92915050565b611557806102de6000396000f3fe60806040526004361061008a5760003560e01c8063829eff2a11610059578063829eff2a1461011b5780638da5cb5b146101375780639c8f9f2314610162578063ec6341b3146101a0578063f2fde38b146101dd5761008b565b80631c9629f81461008d57806351c6590a146100a957806359bf5d39146100d9578063715018a6146101045761008b565b5b005b6100a760048036038101906100a29190610e51565b610206565b005b6100c360048036038101906100be9190610e91565b610354565b6040516100d09190610ecd565b60405180910390f35b3480156100e557600080fd5b506100ee610712565b6040516100fb9190610ecd565b60405180910390f35b34801561011057600080fd5b506101196107b5565b005b61013560048036038101906101309190610e91565b6107c9565b005b34801561014357600080fd5b5061014c6108d8565b6040516101599190610f29565b60405180910390f35b34801561016e57600080fd5b5061018960048036038101906101849190610e91565b610901565b604051610197929190610f44565b60405180910390f35b3480156101ac57600080fd5b506101c760048036038101906101c29190610f6d565b610ba4565b6040516101d49190610ecd565b60405180910390f35b3480156101e957600080fd5b5061020460048036038101906101ff9190610fec565b610c3d565b005b6000610210610712565b9050600061021f848347610ba4565b905082811015610264576040517f08c379a000000000000000000000000000000000000000000000000000000000815260040161025b9061109c565b60405180910390fd5b600160009054906101000a900473ffffffffffffffffffffffffffffffffffffffff1673ffffffffffffffffffffffffffffffffffffffff166323b872dd3330876040518463ffffffff1660e01b81526004016102c3939291906110bc565b6020604051808303816000875af11580156102e2573d6000803e3d6000fd5b505050506040513d601f19601f82011682018060405250810190610306919061112b565b503373ffffffffffffffffffffffffffffffffffffffff166108fc829081150290604051600060405180830381858888f1935050505015801561034d573d6000803e3d6000fd5b5050505050565b60008060004790506000610366610712565b9050600081036104b057600160009054906101000a900473ffffffffffffffffffffffffffffffffffffffff1673ffffffffffffffffffffffffffffffffffffffff166323b872dd3330886040518463ffffffff1660e01b81526004016103cf939291906110bc565b6020604051808303816000875af11580156103ee573d6000803e3d6000fd5b505050506040513d601f19601f82011682018060405250810190610412919061112b565b50819250600260009054906101000a900473ffffffffffffffffffffffffffffffffffffffff1673ffffffffffffffffffffffffffffffffffffffff166321e35fb684336040518363ffffffff1660e01b8152600401610473929190611158565b600060405180830381600087803b15801561048d57600080fd5b505af11580156104a1573d6000803e3d6000fd5b5050505082935050505061070d565b600034836104be91906111b0565b9050600081346104ce91906111e4565b83346104da9190611218565b6104e49190611289565b905080871015610529576040517f08c379a00000000000000000000000000000000000000000000000000000000081526004016105209061132c565b60405180910390fd5b600160009054906101000a900473ffffffffffffffffffffffffffffffffffffffff1673ffffffffffffffffffffffffffffffffffffffff166323b872dd3330846040518463ffffffff1660e01b8152600401610588939291906110bc565b6020604051808303816000875af11580156105a7573d6000803e3d6000fd5b505050506040513d601f19601f820116820180604052508101906105cb919061112b565b508134600260009054906101000a900473ffffffffffffffffffffffffffffffffffffffff1673ffffffffffffffffffffffffffffffffffffffff166318160ddd6040518163ffffffff1660e01b8152600401602060405180830381865afa15801561063b573d6000803e3d6000fd5b505050506040513d601f19601f8201168201806040525081019061065f9190611361565b6106699190611218565b6106739190611289565b9450600260009054906101000a900473ffffffffffffffffffffffffffffffffffffffff1673ffffffffffffffffffffffffffffffffffffffff166321e35fb686336040518363ffffffff1660e01b81526004016106d2929190611158565b600060405180830381600087803b1580156106ec57600080fd5b505af1158015610700573d6000803e3d6000fd5b5050505084955050505050505b919050565b6000600160009054906101000a900473ffffffffffffffffffffffffffffffffffffffff1673ffffffffffffffffffffffffffffffffffffffff166370a08231306040518263ffffffff1660e01b815260040161076f9190610f29565b602060405180830381865afa15801561078c573d6000803e3d6000fd5b505050506040513d601f19601f820116820180604052508101906107b09190611361565b905090565b6107bd610cc3565b6107c76000610d4a565b565b60006107d3610712565b905060006107ed3434476107e791906111b0565b84610ba4565b905082811015610832576040517f08c379a000000000000000000000000000000000000000000000000000000000815260040161082990611400565b60405180910390fd5b600160009054906101000a900473ffffffffffffffffffffffffffffffffffffffff1673ffffffffffffffffffffffffffffffffffffffff1663a9059cbb33836040518363ffffffff1660e01b815260040161088f929190611420565b6020604051808303816000875af11580156108ae573d6000803e3d6000fd5b505050506040513d601f19601f820116820180604052508101906108d2919061112b565b50505050565b60008060009054906101000a900473ffffffffffffffffffffffffffffffffffffffff16905090565b60008060008311610947576040517f08c379a000000000000000000000000000000000000000000000000000000000815260040161093e90611495565b60405180910390fd5b60004790506000600260009054906101000a900473ffffffffffffffffffffffffffffffffffffffff1673ffffffffffffffffffffffffffffffffffffffff166318160ddd6040518163ffffffff1660e01b8152600401602060405180830381865afa1580156109bb573d6000803e3d6000fd5b505050506040513d601f19601f820116820180604052508101906109df9190611361565b905060008186846109f09190611218565b6109fa9190611289565b905060008287610a08610712565b610a129190611218565b610a1c9190611289565b9050600260009054906101000a900473ffffffffffffffffffffffffffffffffffffffff1673ffffffffffffffffffffffffffffffffffffffff16635d3a5e7488336040518363ffffffff1660e01b8152600401610a7b929190611158565b600060405180830381600087803b158015610a9557600080fd5b505af1158015610aa9573d6000803e3d6000fd5b505050503373ffffffffffffffffffffffffffffffffffffffff166108fc839081150290604051600060405180830381858888f19350505050158015610af3573d6000803e3d6000fd5b50600160009054906101000a900473ffffffffffffffffffffffffffffffffffffffff1673ffffffffffffffffffffffffffffffffffffffff1663a9059cbb33836040518363ffffffff1660e01b8152600401610b51929190611420565b6020604051808303816000875af1158015610b70573d6000803e3d6000fd5b505050506040513d601f19601f82011682018060405250810190610b94919061112b565b5081819550955050505050915091565b60008083118015610bb55750600082115b610bf4576040517f08c379a0000000000000000000000000000000000000000000000000000000008152600401610beb90611501565b60405180910390fd5b6000606385610c039190611218565b905080606485610c139190611218565b610c1d91906111e4565b8382610c299190611218565b610c339190611289565b9150509392505050565b610c45610cc3565b600073ffffffffffffffffffffffffffffffffffffffff168173ffffffffffffffffffffffffffffffffffffffff1603610cb75760006040517f1e4fbdf7000000000000000000000000000000000000000000000000000000008152600401610cae9190610f29565b60405180910390fd5b610cc081610d4a565b50565b610ccb610e0e565b73ffffffffffffffffffffffffffffffffffffffff16610ce96108d8565b73ffffffffffffffffffffffffffffffffffffffff1614610d4857610d0c610e0e565b6040517f118cdaa7000000000000000000000000000000000000000000000000000000008152600401610d3f9190610f29565b60405180910390fd5b565b60008060009054906101000a900473ffffffffffffffffffffffffffffffffffffffff169050816000806101000a81548173ffffffffffffffffffffffffffffffffffffffff021916908373ffffffffffffffffffffffffffffffffffffffff1602179055508173ffffffffffffffffffffffffffffffffffffffff168173ffffffffffffffffffffffffffffffffffffffff167f8be0079c531659141344cd1fd0a4f28419497f9722a3daafe3b4186f6b6457e060405160405180910390a35050565b600033905090565b600080fd5b6000819050919050565b610e2e81610e1b565b8114610e3957600080fd5b50565b600081359050610e4b81610e25565b92915050565b60008060408385031215610e6857610e67610e16565b5b6000610e7685828601610e3c565b9250506020610e8785828601610e3c565b9150509250929050565b600060208284031215610ea757610ea6610e16565b5b6000610eb584828501610e3c565b91505092915050565b610ec781610e1b565b82525050565b6000602082019050610ee26000830184610ebe565b92915050565b600073ffffffffffffffffffffffffffffffffffffffff82169050919050565b6000610f1382610ee8565b9050919050565b610f2381610f08565b82525050565b6000602082019050610f3e6000830184610f1a565b92915050565b6000604082019050610f596000830185610ebe565b610f666020830184610ebe565b9392505050565b600080600060608486031215610f8657610f85610e16565b5b6000610f9486828701610e3c565b9350506020610fa586828701610e3c565b9250506040610fb686828701610e3c565b9150509250925092565b610fc981610f08565b8114610fd457600080fd5b50565b600081359050610fe681610fc0565b92915050565b60006020828403121561100257611001610e16565b5b600061101084828501610fd7565b91505092915050565b600082825260208201905092915050565b7f455448207265636569766564206973206c657373207468616e206d696e696d7560008201527f6d20455448206578706563746564000000000000000000000000000000000000602082015250565b6000611086602e83611019565b91506110918261102a565b604082019050919050565b600060208201905081810360008301526110b581611079565b9050919050565b60006060820190506110d16000830186610f1a565b6110de6020830185610f1a565b6110eb6040830184610ebe565b949350505050565b60008115159050919050565b611108816110f3565b811461111357600080fd5b50565b600081519050611125816110ff565b92915050565b60006020828403121561114157611140610e16565b5b600061114f84828501611116565b91505092915050565b600060408201905061116d6000830185610ebe565b61117a6020830184610f1a565b9392505050565b7f4e487b7100000000000000000000000000000000000000000000000000000000600052601160045260246000fd5b60006111bb82610e1b565b91506111c683610e1b565b92508282039050818111156111de576111dd611181565b5b92915050565b60006111ef82610e1b565b91506111fa83610e1b565b925082820190508082111561121257611211611181565b5b92915050565b600061122382610e1b565b915061122e83610e1b565b925082820261123c81610e1b565b9150828204841483151761125357611252611181565b5b5092915050565b7f4e487b7100000000000000000000000000000000000000000000000000000000600052601260045260246000fd5b600061129482610e1b565b915061129f83610e1b565b9250826112af576112ae61125a565b5b828204905092915050565b7f496e73756666696369656e7420616d6f756e74206f6620746f6b656e7320707260008201527f6f76696465640000000000000000000000000000000000000000000000000000602082015250565b6000611316602683611019565b9150611321826112ba565b604082019050919050565b6000602082019050818103600083015261134581611309565b9050919050565b60008151905061135b81610e25565b92915050565b60006020828403121561137757611376610e16565b5b60006113858482850161134c565b91505092915050565b7f546f6b656e7320726563656976656420617265206c657373207468616e206d6960008201527f6e696d756d20746f6b656e732065787065637465640000000000000000000000602082015250565b60006113ea603583611019565b91506113f58261138e565b604082019050919050565b60006020820190508181036000830152611419816113dd565b9050919050565b60006040820190506114356000830185610f1a565b6114426020830184610ebe565b9392505050565b7f4e6f7420656e6f75676820546f6b656e73000000000000000000000000000000600082015250565b600061147f601183611019565b915061148a82611449565b602082019050919050565b600060208201905081810360008301526114ae81611472565b9050919050565b7f4e6f204c69717569646974792121210000000000000000000000000000000000600082015250565b60006114eb600f83611019565b91506114f6826114b5565b602082019050919050565b6000602082019050818103600083015261151a816114de565b905091905056fea2646970667358221220e3e7f59fdf1bd6c479eab723230ff2685b709b33a838ba28afeb2d754b4bc72d64736f6c634300081c0033",
  "devdoc": {
    "errors": {
      "OwnableInvalidOwner(address)": [
        {
          "details": "The owner is not a valid owner account. (eg. `address(0)`)"
        }
      ],
      "OwnableUnauthorizedAccount(address)": [
        {
          "details": "The caller account is not authorized to perform an operation."
        }
      ]
    },
    "kind": "dev",
    "methods": {
      "owner()": {
        "details": "Returns the address of the current owner."
      },
      "renounceOwnership()": {
        "details": "Leaves the contract without owner. It will not be possible to call `onlyOwner` functions. Can only be called by the current owner. NOTE: Renouncing ownership will leave the contract without an owner, thereby disabling any functionality that is only available to the owner."
      },
      "transferOwnership(address)": {
        "details": "Transfers ownership of the contract to a new account (`newOwner`). Can only be called by the current owner."
      }
    },
    "version": 1
  },
  "userdoc": {
    "kind": "user",
    "methods": {},
    "version": 1
  },
  "storageLayout": {
    "storage": [
      {
        "astId": 8,
        "contract": "contracts/Exchange.sol:Exchange",
        "label": "_owner",
        "offset": 0,
        "slot": "0",
        "type": "t_address"
      },
      {
        "astId": 968,
        "contract": "contracts/Exchange.sol:Exchange",
        "label": "antToken",
        "offset": 0,
        "slot": "1",
        "type": "t_contract(Ant)958"
      },
      {
        "astId": 971,
        "contract": "contracts/Exchange.sol:Exchange",
        "label": "lpToken",
        "offset": 0,
        "slot": "2",
        "type": "t_contract(LPToken)1391"
      }
    ],
    "types": {
      "t_address": {
        "encoding": "inplace",
        "label": "address",
        "numberOfBytes": "20"
      },
      "t_contract(Ant)958": {
        "encoding": "inplace",
        "label": "contract Ant",
        "numberOfBytes": "20"
      },
      "t_contract(LPToken)1391": {
        "encoding": "inplace",
        "label": "contract LPToken",
        "numberOfBytes": "20"
      }
    }
  }
}